:100000000216150219A18FC17F002202190343FEB7
:10001000082222021ABFEF7803CEC313CE13D8F9F9
:10002000FFE4FDFCC3ED9FEC9E500EE4FB0BEBB434
:1000300020FB0DBD00010C80EB22220218ADAD07A4
:10004000ED54F0FFE4C4F854F0C8EFC4540F48FE78
:10005000C3940AEE500424308002243790E8D2F092
:10006000ED540FFEC3940AEE50042430800224376E
:1000700090E8D3F0E490E8D4F07B017AE879D212EA
:1000800006AB220214E5E709F608DFFA8046E70925
:10009000F208DFFA803E88828C83E709F0A3DFFA5A
:1000A0008032E309F608DFFA8078E309F208DFFA24
:1000B000807088828C83E309F0A3DFFA80648982F0
:1000C0008A83E0A3F608DFFA805889828A83E0A356
:1000D000F208DFFA804C80D280FA80C680D4806932
:1000E00080F28033801080A680EA809A80A880DA2F
:1000F00080E280CA803389828A83ECFAE493A3C8C1
:10010000C582C8CCC583CCF0A3C8C582C8CCC58382
:10011000CCDFE9DEE7800D89828A83E493A3F608C9
:10012000DFF9ECFAA9F0EDFB2289828A83ECFAE090
:10013000A3C8C582C8CCC583CCF0A3C8C582C8CC2F
:10014000C583CCDFEADEE880DB89828A83E493A37F
:10015000F208DFF980CC88F0EF60010E4E60C388B2
:10016000F0ED2402B4040050B9F582EB2402B4048B
:100170000050AF23234582239000D673BB0106892C
:10018000828A83E0225002E722BBFE02E3228982B8
:100190008A83E49322BB010CE58229F582E5833A48
:1001A000F583E0225006E92582F8E622BBFE06E947
:1001B0002582F8E222E58229F582E5833AF583E497
:1001C0009322BB010689828A83F0225002F722BB68
:1001D000FE01F322F8BB010DE58229F582E5833AA1
:1001E000F583E8F0225006E92582C8F622BBFE0519
:1001F000E92582C8F222EF8DF0A4A8F0CF8CF0A4FC
:1002000028CE8DF0A42EFE22BC000BBE0029EF8D5F
:10021000F084FFADF022E4CCF875F008EF2FFFEE8C
:1002200033FEEC33FCEE9DEC984005FCEE9DFE0F9A
:10023000D5F0E9E4CEFD22EDF8F5F0EE8420D21CF5
:10024000FEADF075F008EF2FFFED33FD400798503D
:1002500006D5F0F222C398FD0FD5F0EA22C5F0F8DA
:10026000A3E028F0C5F0F8E582158270021583E05E
:1002700038F022BB010A89828A83E0F5F0A3E022EC
:10028000500687F009E71922BBFE07E3F5F009E302
:10029000192289828A83E493F5F074019322BB01C9
:1002A00010E58229F582E5833AF583E0F5F0A3E0D5
:1002B000225009E92582F886F008E622BBFE0AE909
:1002C0002582F8E2F5F008E222E5832AF583E99336
:1002D000F5F0A3E99322F8BB0111E58229F582E547
:1002E000833AF583E8F0E5F0A3F0225009E925828E
:1002F000C8F608A6F022BBFE09E92582C8F2E5F09F
:1003000008F22275F008758200EF2FFFEE33FECD64
:1003100033CDCC33CCC58233C5829BED9AEC99E5C5
:100320008298400CF582EE9BFEED9AFDEC99FC0F55
:10033000D5F0D6E4CEFBE4CDFAE4CCF9A88222B81D
:1003400000C1B90059BA002DEC8BF084CFCECDFCA2
:10035000E5F0CBF97818EF2FFFEE33FEED33FDEC2F
:1003600033FCEB33FB10D703994004EB99FB0FD818
:10037000E5E4F9FA227818EF2FFFEE33FEED33FDB6
:10038000EC33FCC933C910D7059BE99A4007EC9BB5
:10039000FCE99AF90FD8E0E4C9FAE4CCFB2275F045
:1003A00010EF2FFFEE33FEED33FDCC33CCC833C856
:1003B00010D7079BEC9AE899400AED9BFDEC9AFC5C
:1003C000E899F80FD5F0DAE4CDFBE4CCFAE4C8F90B
:1003D00022E8600FECC313FCED13FDEE13FEEF13E8
:1003E000FFD8F122ECF0A3EDF0A3EEF0A3EFF022A2
:1003F000D083D082F8E4937012740193700DA3A39C
:1004000093F8740193F5828883E4737402936860AF
:10041000EFA3A3A380DF8A838982E473EF4E601287
:10042000EF60010EEDBB010B89828A83F0A3DFFC34
:10043000DEFA2289F05007F709DFFCA9F022BBFEA3
:10044000FCF309DFFCA9F02212215390E8C1EFF080
:1004500090E001E090E8BEF01220C7E01203F00443
:10046000870D05776105426504906C065E7004C2D5
:100470007105C272058A73061B74065275051477DE
:100480000640790000069C7BFF7A0C79B50206A72E
:1004900090E32FE06014E4F07BFF7A0C79F41221F2
:1004A000F712239E12239802239290E32F7401F0F7
:1004B0007BFF7A0C79FE1221F712238C12237A0229
:1004C000237190E2AAE0FF04F090E34DE0FBA3E08B
:1004D000FAA3E0F9900003EF1201D47BFF7A0D79C3
:1004E000071221F790E8C674FFF0A3740CF0A37410
:1004F000B3F07B017AE2791A7D12121EB27BFF7A89
:100500000C79B51221F790E34DE0FBA3E0FAA3E0EC
:10051000F902231D90E219E06012E4F090E455F036
:100520007BFF7A0D791D1221F702231990E21974CD
:1005300001F090E455F07BFF7A0D79301221F7023B
:10054000230D90E219E070097BFF7A0D79420206D3
:10055000A790E455E0600EE4F07BFF7A0D7951122C
:1005600021F702230190E4557401F07BFF7A0D79A5
:10057000671221F70222F590E2A9E0FFB41A067E85
:100580000B7F0B8016EF04FF801190E2A9E0FFB40F
:100590000B067E1A7F1A8003EF14FF90E2A9EFF09A
:1005A0007BFF7A0D797C1221F790E2A9E0FF1222FD
:1005B000D97BFF7A0C79881221F790E2A9E0FF023B
:1005C00022E990E8C57401F0A3747BF0A3E4F0A3E2
:1005D00004F0A3E4F07B017AE07902121D4DE4906F
:1005E000E8B9F0A3F090E8B9E0FEA3E0FFC3EE9411
:1005F00001501F74022FF582E434E0F583E0FF120E
:10060000220090E8BAE004F070DB90E8B9E004F072
:1006100080D37BFF7A0C79880206A77BFF7A0D795D
:10062000871221F790E8C57401F0A3747BF0A3E46E
:10063000F0A304F0A3E4F07B017AE37953021D1DDB
:100640007BFF7A0D79991221F77B017A7B79000281
:1006500022DD7BFF7A0D79AB1221F702225190E364
:100660004DE0FBA3E0FAA3E0F912017CB47F047F24
:100670000D80027F7FEF1201C27BFF7A0D79B912E4
:1006800021F790E34DE0FBA3E0FAA3E0F912017C2F
:10069000FF1222D97BFF7A0C7988800BE490E8BFA7
:1006A000F07B017AE879BE1221F72290E8EC122162
:1006B0004BA3EFF0E4A3F0A3F0A3F090E183E0FB01
:1006C000A3E0FAA3E0F9C003C002C00190E213A3C3
:1006D000E0FAA3E0F9C3D082D083D0E0E99582EAC2
:1006E000958350030207AF90E2A5E0FBA3E0FAA3D5
:1006F000E0F9C003C002C00190E213A3E0FAA3E056
:10070000F9C3D082D083D0E0E99582EA9583504442
:1007100090E8ECE0FBA3E0FAA3E0F912017CFF60B3
:100720003390E213E0FBA3E0FAA3E0F9EF1201C279
:1007300090E214E475F00112025D90E8EDE475F0CA
:100740000112025D90E8F2E004F0709B90E8F1E0A5
:1007500004F0809390E2A5E0FBA3E0FAA3E0F9C0E7
:1007600003C002C00190E213E0FBA3E0FAA3E0F9AA
:10077000D082D083D0E06B7008E965827003EA65AF
:100780008370117B0190E21304F0A374E4F0A3746E
:10079000C2F0801B90E20FE07002A3E0700B122009
:1007A000CD90E20FE4F0A304F090E8F07401F09033
:1007B000E8F0E0600302088490E183E0FBA3E0FA44
:1007C000A3E0F9C003C002C00190E213A3E0FAA3C2
:1007D000E0F9C3D082D083D0E0E99582EA958350D6
:1007E0004490E8ECE0FBA3E0FAA3E0F912017CFFFF
:1007F000603390E213E0FBA3E0FAA3E0F9EF12010B
:10080000C290E214E475F00112025D90E8EDE47527
:10081000F00112025D90E8F2E004F0709B90E8F1C4
:10082000E004F0809390E20FE07002A3E0700B12FE
:1008300020CD90E20FE4F0A304F090E183E0FBA36D
:10084000E0FAA3E0F9C003C002C00190E213E0FBAC
:10085000A3E0FAA3E0F9D082D083D0E06B7008E97E
:1008600065827003EA6583701B90E20FE07002A35B
:10087000E0700B1220CD90E20FE4F0A304F090E8BA
:10088000F07401F090E8F0E0701B90E20FE070026D
:10089000A3E0700B1220CD90E20FE4F0A304F090DF
:1008A000E8F07401F090E8F1E0FEA3E0FDAC069002
:1008B000E8EFE0FF1220C7AE04AF0522E490E8C5E0
:1008C000F090E8CCF0FCFD90E8CE1203E4E47B105D
:1008D0007A27F9F890E8CEE0FCA3E0FDA3E0FEA3C0
:1008E000E0FF12033F90E8CDEFF0700690E8C5E01E
:1008F000604890E8CDE02430FF90E8CCE024C6F5D5
:1009000082E434E8F583EFF090E8CCE004F090E87E
:10091000CEE0FCA3E0FDA3E0FEA3E0FFE47B107AC1
:1009200027F9F812033FAC00AD01AE02AF0390E827
:10093000CE1203E490E8C57401F0E47BE87A03F991
:10094000F890E8CEE0FCA3E0FDA3E0FEA3E0FF12F8
:10095000033F90E8CDEFF0700690E8C5E060489066
:10096000E8CDE02430FF90E8CCE024C6F582E43402
:10097000E8F583EFF090E8CCE004F090E8CEE0FCFE
:10098000A3E0FDA3E0FEA3E0FFE47BE87A03F9F82F
:1009900012033FAC00AD01AE02AF0390E8CE1203EC
:1009A000E490E8C57401F0E47B64FAF9F890E8CECD
:1009B000E0FCA3E0FDA3E0FEA3E0FF12033F90E80C
:1009C000CDEFF0700690E8C5E0604790E8CDE024F8
:1009D00030FF90E8CCE024C6F582E434E8F583EFFC
:1009E000F090E8CCE004F090E8CEE0FCA3E0FDA3BA
:1009F000E0FEA3E0FFE47B64FAF9F812033FAC00E9
:100A0000AD01AE02AF0390E8CE1203E490E8C574E6
:100A100001F0E47B0AFAF9F890E8CEE0FCA3E0FDEF
:100A2000A3E0FEA3E0FF12033F90E8CDEFF07006D5
:100A300090E8C5E0604790E8CDE02430FF90E8CC36
:100A4000E024C6F582E434E8F583EFF090E8CCE0EA
:100A500004F090E8CEE0FCA3E0FDA3E0FEA3E0FFFD
:100A6000E47B0AFAF9F812033FAC00AD01AE02AF25
:100A70000390E8CE1203E490E8C57401F090E8CE4C
:100A8000A3A3A3E02430FF90E8CCE024C6F582E4E1
:100A900034E8F583EFF090E8CCE004F0E024C6F50C
:100AA00082E434E8F583E4F07B017AE879C6120643
:100AB000AB2290E8BAEBF0A3EAF0A3E9F090E8BA31
:100AC000E0FBA3E0FAA3E0F912017CFF90E8BDF09F
:100AD00090E456E0FBA3E0FAA3E0F9EF1201C29024
:100AE000E8BAE0FBA3E0FAA3E0F990000212019556
:100AF000FF90E8BEE4F0A3EFF0900001120195FD35
:100B00007C0090E8BFE0FEE42DFFEC3EFE90E8BEE6
:100B1000F0A3EFF090E456E0FBA3E0FAA3E0F99035
:100B20000001EE8FF01202D690E8BAE0FBA3E0FAE3
:100B3000A3E0F9900003120195FF90E456E0FBA3B7
:100B4000E0FAA3E0F9900003EF1201D490E8BAE0D4
:100B5000FBA3E0FAA3E0F9900005120195FF90E8ED
:100B6000BEE4F0A3EFF0900004120195FD90E8BF01
:100B7000E0FEE42DFFEC3EFE90E8BEF0A3EFF09027
:100B8000E456E0FBA3E0FAA3E0F9900004EE8FF056
:100B90001202D690E8BAE0FBA3E0FAA3E0F99000D5
:100BA00007120195FF90E8BEE4F0A3EFF090000675
:100BB000120195FD90E8BFE0FEE42DFFEC3EFE90B3
:100BC000E8BEF0A3EFF090E456E0FBA3E0FAA3E068
:100BD000F9900006EE8FF01202D67F0890E8BDE093
:100BE000FE14FDEFC39D502B90E8BAE0FBA3E0FAA2
:100BF000A3E0F98F82758300120195FD90E456E021
:100C0000FBA3E0FAA3E0F98F82758300ED1201D413
:100C10000F80C9EE24FFFDE434FFFC90E8BAE0FB4E
:100C2000A3E0FAA3E0F98D828C83120195FF90E492
:100C300056E0FBA3E0FAA3E0F990007EEF1201D4A6
:100C400090E8BAE0FBA3E0FAA3E0F98E8275830096
:100C5000120195FF90E456E0FBA3E0FAA3E0F990BF
:100C6000007FEF1201D41222C590E456EBF0A3EA04
:100C7000F0A3E9F090E8BAE0FBA3E0FAA3E0F922E0
:100C80002D0056616C3A20000A0D004D41433A2078
:100C900042756666657220666C75736865640D0AD8
:100CA000005265636569766564207061636B657485
:100CB0003A200020000D0A004D41433A20435243A0
:100CC000204661696C65640A0D005472616E736D33
:100CD000697373696F6E20646F6E650D0A005472DC
:100CE000616E736D697373696F6E206661696C659F
:100CF000643A20004C6564206F66660A0D004C65FE
:100D000064206F6E0A0D005472616E736D697474A5
:100D1000696E67207061636B65743A20005261648C
:100D2000696F207475726E6564206F66660D0A00C7
:100D3000526164696F207475726E6564206F6E0D08
:100D40000A00526164696F206973206F66660D0A3C
:100D5000005265636569766572207475726E6564AC
:100D6000206F66660D0A00526563656976657220BC
:100D70007475726E6564206F6E0D0A004368616E53
:100D80006E656C203A200057726974696E67207333
:100D900065676D656E740A0D0045726173696E67F3
:100DA000207365676D656E740A0D00526561646934
:100DB0006E67206164630A0D004C656E677468207D
:100DC0006E6F773A200050726F6772616D20696EA6
:100DD000697469616C697A65640A0D004D41433A32
:100DE00020427566666572206F76657272756E0D4B
:100DF0000A004D41433A20556E7363686564756C13
:100E00006564207472616E736D69740A0090E34CBE
:100E1000E0702BE5D9F0E0FFC3947F501190E330F0
:100E2000E0FBA3E0FAA3E0F9EF1201C28010122266
:100E30005D1220BAE490E34CF090E189F02290DF5B
:100E400053E0FF90E34CE0D39F403A12215390E8E7
:100E5000B9EFF090E8B1E0700990E189E0D3940A2D
:100E6000401212225DE490E212F090E34CF090E127
:100E700089F0800912226390E189E004F090E8B9DA
:100E8000E0FF0220C7E490E189F0FF90E34CE0FE30
:100E9000EFC39E504490DF53E0FD94004022ED9458
:100EA00081501DEF2401FDE433FC90E330E0FBA30F
:100EB000E0FAA3E0F98D828C83E5D91201D4801683
:100EC00090E330E0FBA3E0FAA3E0F98E82758300A3
:100ED000E41201D480030F80B290E330E0FBA3E082
:100EE000FAA3E0F990E34CE0F582758300120195D6
:100EF000FFE490E34CF0EF30E7101222C990E330AA
:100F0000EBF0A3EAF0A3E9F0800F7BFF7A0C79B84D
:100F10001222B91220BA12225D12215390E8B9EFC1
:100F2000F090DF53E0FFD39400400AEF9481500526
:100F3000122263800EE490E212F090E8B1E06003C8
:100F400012225D90E8B9E0FF1220C753E9DF22E4E6
:100F500090E8C2F090E8C7F0FCFDFE90E8C91203EB
:100F6000E4E47B64FAF9F890E8C9E0FCA3E0FDA3AF
:100F7000E0FEA3E0FF12033F90E8C8EFF070069098
:100F8000E8C2E0604790E8C8E02430FF90E8C7E09E
:100F900024C3F582E434E8F583EFF090E8C7E00479
:100FA000F090E8C9E0FCA3E0FDA3E0FEA3E0FFE4CD
:100FB0007B64FAF9F812033FAC00AD01AE02AF0357
:100FC00090E8C91203E490E8C27401F0E47B0AFAE5
:100FD000F9F890E8C9E0FCA3E0FDA3E0FEA3E0FF80
:100FE00012033F90E8C8EFF0700690E8C2E0604757
:100FF00090E8C8E02430FF90E8C7E024C3F582E41D
:1010000034E8F583EFF090E8C7E004F090E8C9E039
:10101000FCA3E0FDA3E0FEA3E0FFE47B0AFAF9F8FD
:1010200012033FAC00AD01AE02AF0390E8C912035A
:10103000E490E8C27401F090E8C9A3A3A3E02430CF
:10104000FF90E8C7E024C3F582E434E8F583EFF0CD
:1010500090E8C7E004F0E024C3F582E434E8F583C7
:10106000E4F07B017AE879C31206AB2290E8C0EB8A
:10107000F0A3EAF0A3E9F07BFF7A0C79A11221F743
:1010800090E8C0E0FBA3E0FAA3E0F912017CFF12B4
:1010900022001221F190E8C0E0FBA3E0FAA3E09067
:1010A00000011221DB1221F190E8C0E0FBA3E0FA7D
:1010B000A3E09000031221FB1221F190E8C0E0FBB5
:1010C000A3E0FAA3E09000041221DB1221F190E8E2
:1010D000C0E0FBA3E0FAA3E0F99000061221DC12C5
:1010E00021F1E490E8C3F090E8C0E0FBA3E0FAA3AC
:1010F000E0F912017C24F7FF90E8C3E0FEC39F50A3
:1011000021E92408F9E43AFAEE7E0029F9EE3AFAE8
:1011100012017CFF1222001221F190E8C3E004F0DA
:1011200080C590E8C0E0FBA3E0FAA3E090007E1247
:1011300021FB1221F190E8C0E0FBA3E0FAA3E0F963
:1011400090007F1221FC7BFF7A0C79B51221F79079
:10115000E8C0E0FBA3E0FAA3E0F92290E8C2122184
:101160004BA3EFF090E8C2E0F9A3E0FAA3E090E32C
:1011700033C9F0A3EAF0A3E9F01220C790E8C2E077
:10118000FBA3E0FAA3E0F912017CFD90E102F090EC
:10119000000112029EAAF054F890E103F0EAA3F0D5
:1011A00090E8C2A3E0FA90000312019590E105F0E7
:1011B00090000412029EAAF090E106F0EAA3F090DB
:1011C000E186E0FBA3E0FAA3E0F9120273AAF09033
:1011D000E108F0EAA3F07F08ED14FEEFC39E502370
:1011E00090E8C2E0FBA3E0FAA3E0F98F82758300E8
:1011F000120195FE74022FF582E434E1F583EEF0DE
:101200000F80D574012DF582E434E1F583E4F074A8
:10121000022DF582E434E1F583E4F07B017AE17993
:10122000021223212290E182E090E8B9F0700312CB
:1012300020F37F807E0012001690DF62E020E0182D
:1012400090E182E070031221B790E8AEE0FBA3E0EA
:10125000FAA3E0F97D02807A75E1E790E8AEE0FB61
:10126000A3E0FAA3E0F912017CF5D9E4FF90E8AE1F
:10127000E0FBA3E0FAA3E0F912017CFEEFC39E506D
:101280000FEFF582758300A3120195F5D90F80DD6C
:10129000E4FFAE070FEEC39403502075E1E3E4FED4
:1012A00090DF62E090E8BAF020E409AD060EEDC3ED
:1012B00094C840EC90E8BAE030E4D790E8BAE02077
:1012C000E41375E1E790E8AEE0FBA3E0FAA3E0F9F0
:1012D0007D0302235C12215390E8BBEFF090E8AA53
:1012E0007401F01220C72242E453000141E21900C8
:1012F00041E4550041E2AA0141E32F0041E34B00E4
:1013000041E1820041E8AA0041E2120041E8B10057
:1013100041E34C0041E189004BE34075AE0100E53B
:10132000AE548070FA226069E4597B0110AF027BF1
:1013300000C083C082C085C084C092EAF583E9F50D
:1013400082759200E5AE548070FA75AE02EC6017BB
:101350007A407904E0A3F5AFD9FA75AF00E5AE5451
:101360004070FADAEDDCE9ED6019ED54FC0303FDA1
:101370007904E0A3F5AFD9FA75AF00E5AE5440703B
:10138000FADDEDD092D084D085D082D083EB60029C
:10139000D2AF2241E000010012215390E8DFEFF0CC
:1013A00090E184E475F00112025D90E218E004F02F
:1013B000700690E217E004F090E2A5E0FBA3E0FAEB
:1013C000A3E0F9C003C002C00190E183E0FBA3E009
:1013D000FAA3E0F9D082D083D0E06B7008E965828F
:1013E0007003EA6583700D90E18304F0A374E4F068
:1013F000A374C2F090E213E0FBA3E0FAA3E0F9C00B
:1014000003C002C00190E183E0FBA3E0FAA3E0F98E
:10141000D082D083D0E06B7008E965827003EA6502
:1014200083600D1220CD90E20FE4F0A304F080075A
:10143000E490E20FF0A3F090E8DFE0FF1220C72273
:1014400090E8CAEBF0A3EAF0A3E9F0A3E0FBA3E085
:10145000FAA3E0FFAE02AD037C00E4FB7A08F9F8E2
:1014600012033F90E8D2EFF090E8CDE0FBA3E0FA62
:10147000A3E0F9FF7C00EA5407FEE4FD78081203BC
:10148000D190E8D3EFF0AF017C00E4FEFD780212CA
:1014900003D190E8D2E025E0FEA3E0FD1313543F12
:1014A0004EF5ADEDC4333354C04FF5AC75AB24A34A
:1014B000E5C7F043C74090E8CAE0FBA3E0FAA3E029
:1014C000F9C00290E8D0E0FCA3E0FD90E18AA3E03F
:1014D000FAA3E0F5828A83D00212041A90E8D4E0DD
:1014E000F5C77F0022C0E0C0F0C083C082C0D075C5
:1014F000D000C000C001C002C003C004C005C006C7
:10150000C00712215390E8E8EFF0E5E95591A3F008
:1015100053E9FE53E9FD53E9FB53E9F753E9EF5370
:10152000E9DF53E9BF53E97FE030E3031223C890BA
:10153000E8E9E030E5031223CB90E8E9E030E60388
:101540001223CE90E8E9E030E41490E8EBE5E2F015
:1015500090E8EAE5E3F0E0FEA3E0FF1223D1539B1D
:10156000FC90E8E8E0FF1220C7D007D006D005D0F5
:1015700004D003D002D001D000D0D0D082D083D00C
:10158000F0D0E03290E453E0FFA3E090E33ECFF0F0
:10159000A3EFF090E34D7401F0A374E2F0A3741A8A
:1015A000F090E34DE0FBA3E0FAA3E0F9747F1201B1
:1015B000C290E34DE0FBA3E0FAA3E0F9900001E460
:1015C000F5F01202D690E2AAE0FF04F0900003EFDB
:1015D0001201D490000474FFF5F01202D6900006B8
:1015E000E4F5F01202D690007EE41201D490007F60
:1015F000E41201D4E4FFFEAD0774532DF582E43408
:10160000E3F583EDF00FBF00010EE4B507E9EEB49A
:1016100001E57F0022787FE4F6D8FD758107021688
:101620005C021C87E493A3F8E493A34003F68001D3
:10163000F208DFF48029E493A3F85407240CC8C30C
:1016400033C4540F4420C8834004F456800146F646
:10165000DFE4800B01020408102040809012E7E4D0
:101660007E019360BCA3FF543F30E509541FFEE4A4
:1016700093A360010ECF54C025E060A840B8E49366
:10168000A3FAE493A3F8E493A3C8C582C8CAC583A8
:10169000CAF0A3C8C582C8CAC583CADFE9DEE7802D
:1016A000BE90E3367410F0A3743DF0A37423F0E40D
:1016B000A3F0A3F0A3F090E453E0FCA3E0FDEC90D2
:1016C000E33CF0A3EDF01221181221C37B017AE371
:1016D000793612195390E33CE0FEA3E0FDEDFF9054
:1016E000E351EEF0A3EFF090E351E0FEA3E0FF1230
:1016F000220D90E351E0FEA3E0FF90E8B2EEF0A3EC
:10170000EFF0122204121F307F14121ED27F01123A
:101710001D7D12223A1222D10222CD90E211E070F8
:1017200005D2A943B43074162FF582E434E2F58370
:10173000E0702C74162FF582E434E2F5837401F026
:1017400090E211E004F0742D2FF582E434E3F58388
:10175000E0FE7401A806088002C333D8FC42F2748C
:101760002E2FF582E434E3F583EDF074502FF582EB
:10177000E434E3F583EBF090E8B9E0FE742D2FF547
:1017800082E434E3F583EEF02290E8C9EBF0A3EABB
:10179000F0A3E9F0A3EDF0E490E8D0F0A3F090E836
:1017A000CCE0FF90E8D0E0FCA3E0FDC39F7480F89C
:1017B000EC648098503FED4C600E90E8CDE0FBA3C8
:1017C000E0FAA3E0F91206AB90E8C9E0FBA3E0FA67
:1017D000A3E0F990E8D0E0FEA3E0F5828E83120149
:1017E00095FF12003E90E8D1E004F070B190E8D08F
:1017F000E004F080A92290E8B8EFF0B40B00504963
:10180000901807F828287302182802182B02182E9F
:1018100002183102183402183702183A02183D0231
:1018200018400218430218460220560204480221BA
:101830009A021E700216A1021225021E92020E0DBD
:10184000021C5402215B021A3790E8B8E0FF122212
:101850009F2290E8C0EEF0A3EFF0E4A3F0C3EE64A3
:1018600080948050237BFF7A0C79801206AB90E83D
:10187000C2EFF090E8C0E0FEA3E0FF7CFF7DFF1226
:1018800001F690E8C3EE800B90E8C0E0FFA3E09083
:10189000E8C3CFF0A3EFF090E8C3E0FEA3E0FF12AF
:1018A00008BC90E8C2E02FF0E0FF7E0022C0E0C05C
:1018B000F0C083C082C0D075D000C000C001C0029B
:1018C000C003C004C005C007E4FDFC12215390E82A
:1018D000DEEFF0E58620E003C2E90D90E8DEE0FFF0
:1018E0001220C7ED4C60031223C2D007D005D004EC
:1018F000D003D002D001D000D0D0D082D083D0F09D
:10190000D0E032C0E0C0F0C083C082C0D075D0004B
:10191000C000C001C002C003C004C005C006C007AB
:10192000AFBBEF90E32BF0A3E4F0AFBA90E32BE072
:10193000F0A3E04FF0122299D007D006D005D004D2
:10194000D003D002D001D000D0D0D082D083D0F04C
:10195000D0E03290000712019590DF4AF090000627
:1019600012019590DF49F090000512019590DF4833
:10197000F090000412019590DF47F09000031201EF
:101980009590DF46F090000212019590DF45F090AF
:10199000000112019590DF44F012017C90DF43F0CA
:1019A00022C0E0C0F0C083C082C0D075D000C000AB
:1019B000C001C002C003C004C005C006C007122198
:1019C0005390E8E0EFF0C2891223C590E8E0E0FF11
:1019D0001220C7D007D006D005D004D003D002D043
:1019E00001D000D0D0D082D083D0F0D0E03212230A
:1019F0009E1223987BFF7A0D79C61221F790E2A9F7
:101A0000740BF0FF1222E97BFF7A0D797C1221F72B
:101A100090E2A9E0FF1222D97BFF7A0C798812218B
:101A2000F790E2197401F090E455F012230D7B0158
:101A30007D307F8002209290E000E0FD7401F07420
:101A4000502DF582E434E3F583E0131313541FFFA4
:101A5000C374089FFF90E32BE0FEA3E0A807088073
:101A600006CEA2E713CE13D8F8FF90E32BEEF0FAE0
:101A7000A3EFF0FBAF05E4FD021CBA90E000E0C369
:101A8000940150037F012290E000EFF090E8C2E55E
:101A9000BBF0E5BAF074502FF582E434E3F583E04F
:101AA000FE742E2FF582E434E3F583E04EFE742DB0
:101AB0002FF582E434E3F583E04EF5B67F0022C0D3
:101AC000E0C0F0C083C082C0D075D000C000C001AB
:101AD000C002C003C004C005C006C007C28BAFC1AE
:101AE0001223BFD007D006D005D004D003D002D037
:101AF00001D000D0D0D082D083D0F0D0E03290E8B6
:101B0000BDEFF0A3ECF0A3EDF090E34BE0600B121F
:101B1000225190E34BE004F08005E490E34BF07B2E
:101B2000FF7A0C79821221F790E8BEE0FEA3E0FF75
:101B30001222B57BFF7A0C79880221F712213A90A4
:101B4000E8B6EFF0121EF212216BEFF012207E12B7
:101B5000216BEFF012206A12216BEFF0121E25ADFF
:101B600007E0FF122172EFF0121B7912216BEFF0E8
:101B700012158412216BEFF02290E1837401F0A31F
:101B800074E4F0A374C2F0F990E2137401F0A3744A
:101B9000E4F0A3E9F090E2A57401F0A374E8F0A3E7
:101BA00074AAF0E490E20FF0A3F090E217F0A3F033
:101BB000FF2290E8B4E0F4602FE090E8B8F0249AB7
:101BC000F582E434E2F583E0FF90E8B4F0BFFF066D
:101BD00090E20D74FFF090E8B8E0FF249AF582E4FB
:101BE00034E2F58374FFF0227FFF2290E8CAEBF025
:101BF000A3EAF0A3E9F090E8D0E0FEA3E0FF90E8CC
:101C0000CDA3E0FAA3E0F97B01C00290E8CAA3E00B
:101C1000FAA3E0F8AC027D01D0021201567F002247
:101C2000AF01AE02AD037C00E4FB7A08F9F81203C1
:101C30003FEF25E0F5AD90E8C2E5C7F043C740901F
:101C4000E8ABA3E0FAA3E0F912041690E8C2E0F5CD
:101C5000C77F002290E182E0600E1221B775E1E6B5
:101C600075E1E61220F3800675E1E675E1E61221E2
:101C70005390E8B9EFF0E490E8B1F01220C77BFF91
:101C80007A0C798B0222B912215390E8B5EFF01249
:101C900023291222AD1222B1EF70FA121B3C12223C
:101CA000B1EF70FA90E8B5E0FF1220C71223A71237
:101CB00023A11223AD7EFF7FFF2290E8BAEDF0A3AF
:101CC000EAF0A3EBF090E8B9EFF0700E90E8BAE01C
:101CD000FFA3E0FCA3E0FD021AFE90E8B9E0FFA339
:101CE000E0FDA3E0FAA3E0FB12218B2290E8BAEB1F
:101CF000F0A3EAF0A3E9F0A3EDF07BFF70067A0C05
:101D000079CA80157A0C79DE1221F790E8BDE0FFE0
:101D10001222007BFF7A0C79B51221F722C002C093
:101D20000190E8C5E0F9A3E0FAA3E090E8CDC9F09E
:101D3000A3EAF0A3E9F090E8C8E0FFA3E090E8D0C0
:101D4000CFF0A3EFF0D001D00212144022C002C0A5
:101D50000190E8C5E0F9A3E0FAA3E090E8CDC9F06E
:101D6000A3EAF0A3E9F090E8C8E0FFA3E090E8D090
:101D7000CFF0A3EFF0D001D002121BEB22EF75F0F1
:101D80001FA4FFAEF07C007D64120208EF541FFF19
:101D900090DF0AE0FCA3E054E0FDECFEED4FFF9085
:101DA000DF0AEEF0A3EFF022AE07121F4DEF701F17
:101DB00090E8B4E0B4FF02800D90E20DE0249AF5C3
:101DC00082E434E2F583EEF090E20DF07F01227FB1
:101DD000002212215390E8B7EFF0121BB290E8B640
:101DE000EFF0BFFF051223AA80F090E8B7E0FF12E2
:101DF00020C790E8B6E0FF1217F680D6AE07122192
:101E00005390E8F3EFF0AF06121DA8EF60047F00D7
:101E100080027F0590E8F4EFF090E8F3E0FF1220F5
:101E2000C7A3E0FF2253F1FE43F30CE5C65440C4C0
:101E300013135403240AF5C575C2D84386C043C49E
:101E400082C2E9C28BD2AA439A047F002290E8C4DE
:101E5000EEF0A3EFF0EEFF12003EC006C00790E8E0
:101E6000C4A3E0FF12003ED0E02FFFD0E03EFE22F0
:101E700012215390E8B9EFF090E20EE0FE1220C775
:101E800090E333E0FBA3E0FAA3E0F9AF06AD07026D
:101E9000235F121F8390E182E0600E1221B790E26F
:101EA000A8E0FF121ED20220F390E2A8E0FF121E6B
:101EB000D222C002C00190E8C6E0F9A3E0FAA3E094
:101EC00090E8CDC9F0A3EAF0A3E9F0D001D0020276
:101ED0001789EF24F5FFE434FFFE7C007D05120135
:101EE000F674652FFF74013E444090DF10F0A3EFBD
:101EF000F02290E8AB7401F0A374E3F0A37440F017
:101F000090E18A7401F0A374E4F0A37459F07F00A7
:101F1000227BFF7A0D79DC1222B990E212E070097F
:101F200090E8B1E0700312225D90E8B17401F022F4
:101F300090DF02E054F7F0A3E04420F090DF4F740C
:101F40007FF090DF0A7405F0A3740FF022749A2FCB
:101F5000F582E434E2F583E0B4FF0790E20DE0B5EA
:101F600007047F0180027F00227E007F0B7DFF7BC4
:101F7000017AE2799A12041C90E8B474FFF090E2BE
:101F80000DF022E4FA90DF62E030E410EAC394320C
:101F9000500A7F647E001200160A80E922EFC39483
:101FA0000B4006EFD3941A40037F012290E2A8EF82
:101FB000F01222757F002212215390E8C2EFF04305
:101FC000912053E9DF439A01E0FF1220C77F0022EE
:101FD00012215390E8B9EFF043914053E9BF439A7F
:101FE00001E0FF1220C77F002290E212E070129001
:101FF000DF53E0D39400400990E2127401F0122202
:10200000632253BEFC53BEFBE5BE30E6FB7408FF03
:10201000F5C61222A97F002212235912235012233F
:102020004D1223441223381223357F002290E8AA50
:10203000E06005E4F00222937BFF7A0D79F2122230
:10204000B92290E8BC12214BA3EFF090E20EEDF024
:102050001220C702225712230D90E34DE0FBA3E0AC
:10206000FAA3E0F912231D02231912227B90E456F1
:102070007401F0A374E2F0A374ABF07F002290E34C
:10208000307401F0A374E1F0A3748DF01222817F0B
:102090000022AE03AC05AD07AF04AB0790E8B9EE84
:1020A000F0E4FF02171B121BB2EFB4FF07E490E845
:1020B000B6F0FF221217F67F012212215390E8B9E1
:1020C000EFF0E490E212F0EF24FF92AF2290E18370
:1020D000E0FBA3E0FAA3E0F912017CFF1200062264
:1020E00012215390E8C2EFF05391DFE0FF1220C7B6
:1020F0007F002275E1E675E1E61222C175E1E2900A
:10210000E1827401F02212215390E8B9EFF0C28904
:10211000D2A81220C77F002290DF17E054F7F0E02A
:102120004408F0E5E920E7FB2290E8AEEBF0A3EAF3
:10213000F0A3E9F012226F7F00227F0190E216E403
:10214000F0A3DFFCE490E211F0FF22EBF0A3EAF051
:10215000A3E9F0A2AFE433FFC2AF2290E8AEE0FB08
:10216000A3E0FAA3E0F9E4FD02235CAD0790E8B632
:10217000E0FFEFB5050280027F012212215390E8B3
:10218000DCEFF01223B3E0FF0220C790E8BDEFF0D0
:10219000A3EDF0A3EAF0A3EBF0221222D590E186A2
:1021A000EBF0A3EAF0A3E9F02290DF177404F090BB
:1021B000DF17E020E4F92275E1E51222BDE490E1A9
:1021C00082F02253BEFB53C6FEE5BE30E6FB2290F2
:1021D000E182E060031221B77F0022F912029EFF24
:1021E000AEF0121E4D2290E001EFF01223BC02224D
:1021F000877BFF7A0C79B31206AB22F9120195FFA7
:1022000012003E2290DF4BEEF0A3EFF02290DF4D64
:10221000EEF0A3EFF0221221A91220F37F00221288
:102220001F8312223A7F00221223A753BEFC0223EF
:10223000A490E8ECEEF0A3EFF02290DF17E0440862
:10224000F022AE0712228D0221E67B017AE379515A
:1022500022E4FF121A7B227F03121DFC227F081248
:102260001DFC227F07121DFC221220F37F00227F1B
:1022700005121DFC227F06121DFC227F02121DFC8E
:10228000227F04121DFC227F01121DFC2290E8DC3B
:10229000EFF0227F09121DFC227F0A121DFC229002
:1022A000E8B9EFF02243FE01221220182212200288
:1022B000221220A622121852221206AB221220E06D
:1022C00022121FB72212106C22120AB22212210609
:1022D00022121FD02212224A22120F4F22121C2039
:1022E00022121F9D221222E1221222E522122269CD
:1022F000221222ED221222F1221221CF221222F9E1
:10230000221222FD22122216221223052212230952
:102310002212221F22122311221223152212115BD4
:10232000221221292212224222021F69C293220272
:10233000232C02232F022332020012C290220223F6
:102340003B02233E02234102000E02234702234A9E
:1023500002003A0222A5022353022356022042021F
:102360001CECD2932202236202236502236802231B
:102370006B02236E0223D4022374022377D29022AD
:1023800002237D0223800223830223860223890203
:10239000233502238F02233802239502234402238C
:1023A0009B0219EEC2AF22D2AF22022228021DD216
:1023B000B290220223B002217B0223B60223B9028B
:1023C0002325021398021F110223D5021FE90220C0
:0623D0002D022231222241
:00000001FF
