:100000000216150219EF8FC17F002202190343FE69
:10001000082222021AC4EF7803CEC313CE13D8F9F4
:10002000FFE4FDFCC3ED9FEC9E500EE4FB0BEBB434
:1000300020FB0DBD00010C80EB22220218ADAD07A4
:10004000ED54F0FFE4C4F854F0C8EFC4540F48FE78
:10005000C3940AEE500424308002243790E8D2F092
:10006000ED540FFEC3940AEE50042430800224376E
:1000700090E8D3F0E490E8D4F07B017AE879D212EA
:1000800006AB220214E5E709F608DFFA8046E70925
:10009000F208DFFA803E88828C83E709F0A3DFFA5A
:1000A0008032E309F608DFFA8078E309F208DFFA24
:1000B000807088828C83E309F0A3DFFA80648982F0
:1000C0008A83E0A3F608DFFA805889828A83E0A356
:1000D000F208DFFA804C80D280FA80C680D4806932
:1000E00080F28033801080A680EA809A80A880DA2F
:1000F00080E280CA803389828A83ECFAE493A3C8C1
:10010000C582C8CCC583CCF0A3C8C582C8CCC58382
:10011000CCDFE9DEE7800D89828A83E493A3F608C9
:10012000DFF9ECFAA9F0EDFB2289828A83ECFAE090
:10013000A3C8C582C8CCC583CCF0A3C8C582C8CC2F
:10014000C583CCDFEADEE880DB89828A83E493A37F
:10015000F208DFF980CC88F0EF60010E4E60C388B2
:10016000F0ED2402B4040050B9F582EB2402B4048B
:100170000050AF23234582239000D673BB0106892C
:10018000828A83E0225002E722BBFE02E3228982B8
:100190008A83E49322BB010CE58229F582E5833A48
:1001A000F583E0225006E92582F8E622BBFE06E947
:1001B0002582F8E222E58229F582E5833AF583E497
:1001C0009322BB010689828A83F0225002F722BB68
:1001D000FE01F322F8BB010DE58229F582E5833AA1
:1001E000F583E8F0225006E92582C8F622BBFE0519
:1001F000E92582C8F222EF8DF0A4A8F0CF8CF0A4FC
:1002000028CE8DF0A42EFE22BC000BBE0029EF8D5F
:10021000F084FFADF022E4CCF875F008EF2FFFEE8C
:1002200033FEEC33FCEE9DEC984005FCEE9DFE0F9A
:10023000D5F0E9E4CEFD22EDF8F5F0EE8420D21CF5
:10024000FEADF075F008EF2FFFED33FD400798503D
:1002500006D5F0F222C398FD0FD5F0EA22C5F0F8DA
:10026000A3E028F0C5F0F8E582158270021583E05E
:1002700038F022BB010A89828A83E0F5F0A3E022EC
:10028000500687F009E71922BBFE07E3F5F009E302
:10029000192289828A83E493F5F074019322BB01C9
:1002A00010E58229F582E5833AF583E0F5F0A3E0D5
:1002B000225009E92582F886F008E622BBFE0AE909
:1002C0002582F8E2F5F008E222E5832AF583E99336
:1002D000F5F0A3E99322F8BB0111E58229F582E547
:1002E000833AF583E8F0E5F0A3F0225009E925828E
:1002F000C8F608A6F022BBFE09E92582C8F2E5F09F
:1003000008F22275F008758200EF2FFFEE33FECD64
:1003100033CDCC33CCC58233C5829BED9AEC99E5C5
:100320008298400CF582EE9BFEED9AFDEC99FC0F55
:10033000D5F0D6E4CEFBE4CDFAE4CCF9A88222B81D
:1003400000C1B90059BA002DEC8BF084CFCECDFCA2
:10035000E5F0CBF97818EF2FFFEE33FEED33FDEC2F
:1003600033FCEB33FB10D703994004EB99FB0FD818
:10037000E5E4F9FA227818EF2FFFEE33FEED33FDB6
:10038000EC33FCC933C910D7059BE99A4007EC9BB5
:10039000FCE99AF90FD8E0E4C9FAE4CCFB2275F045
:1003A00010EF2FFFEE33FEED33FDCC33CCC833C856
:1003B00010D7079BEC9AE899400AED9BFDEC9AFC5C
:1003C000E899F80FD5F0DAE4CDFBE4CCFAE4C8F90B
:1003D00022E8600FECC313FCED13FDEE13FEEF13E8
:1003E000FFD8F122ECF0A3EDF0A3EEF0A3EFF022A2
:1003F000D083D082F8E4937012740193700DA3A39C
:1004000093F8740193F5828883E4737402936860AF
:10041000EFA3A3A380DF8A838982E473EF4E601287
:10042000EF60010EEDBB010B89828A83F0A3DFFC34
:10043000DEFA2289F05007F709DFFCA9F022BBFEA3
:10044000FCF309DFFCA9F02212215890E8C1EFF07B
:1004500090E001E090E8BEF01220CCE01203F0043E
:10046000870D05776105426504906C065E7004C2D5
:100470007105C272058A73061B74065275051477DE
:100480000640790000069C7BFF7A0C79B50206A72E
:1004900090E32FE06014E4F07BFF7A0C79F41222F1
:1004A0000B1223BE1223B80223B290E32F7401F083
:1004B0007BFF7A0C79FE12220B1223AC12239A02D4
:1004C000239190E2AAE0FF04F090E34DE0FBA3E06B
:1004D000FAA3E0F9900003EF1201D47BFF7A0D79C3
:1004E0000712220B90E8C674FFF0A3740CF0A374FB
:1004F000B3F07B017AE2791A7D12121EB77BFF7A84
:100500000C79B512220B90E34DE0FBA3E0FAA3E0D7
:10051000F902233190E219E06012E4F090E455F022
:100520007BFF7A0D791D12220B02232D90E21974A4
:1005300001F090E455F07BFF7A0D793012220B0226
:10054000232190E219E070097BFF7A0D79420206BF
:10055000A790E455E0600EE4F07BFF7A0D7951122C
:10056000220B02231590E4557401F07BFF7A0D797C
:100570006712220B02230990E2A9E0FFB41A067E5B
:100580000B7F0B8016EF04FF801190E2A9E0FFB40F
:100590000B067E1A7F1A8003EF14FF90E2A9EFF09A
:1005A0007BFF7A0D797C12220B90E2A9E0FF1222E8
:1005B000ED7BFF7A0C798812220B90E2A9E0FF0212
:1005C00022FD90E8C57401F0A3747BF0A3E4F0A3CE
:1005D00004F0A3E4F07B017AE07902121D52E4906A
:1005E000E8B9F0A3F090E8B9E0FEA3E0FFC3EE9411
:1005F00001501F74022FF582E434E0F583E0FF120E
:10060000221490E8BAE004F070DB90E8B9E004F05E
:1006100080D37BFF7A0C79880206A77BFF7A0D795D
:100620008712220B90E8C57401F0A3747BF0A3E459
:10063000F0A304F0A3E4F07B017AE37953021D22D6
:100640007BFF7A0D799912220B7B017A7B7900026C
:1006500022F17BFF7A0D79AB12220B02226590E327
:100660004DE0FBA3E0FAA3E0F912017CB47F047F24
:100670000D80027F7FEF1201C27BFF7A0D79B912E4
:10068000220B90E34DE0FBA3E0FAA3E0F912017C1A
:10069000FF1222ED7BFF7A0C7988800BE490E8BF93
:1006A000F07B017AE879BE12220B2290E8EC12214D
:1006B00050A3EFF0E4A3F0A3F0A3F090E183E0FBFC
:1006C000A3E0FAA3E0F9C003C002C00190E213A3C3
:1006D000E0FAA3E0F9C3D082D083D0E0E99582EAC2
:1006E000958350030207AF90E2A5E0FBA3E0FAA3D5
:1006F000E0F9C003C002C00190E213A3E0FAA3E056
:10070000F9C3D082D083D0E0E99582EA9583504442
:1007100090E8ECE0FBA3E0FAA3E0F912017CFF60B3
:100720003390E213E0FBA3E0FAA3E0F9EF1201C279
:1007300090E214E475F00112025D90E8EDE475F0CA
:100740000112025D90E8F2E004F0709B90E8F1E0A5
:1007500004F0809390E2A5E0FBA3E0FAA3E0F9C0E7
:1007600003C002C00190E213E0FBA3E0FAA3E0F9AA
:10077000D082D083D0E06B7008E965827003EA65AF
:100780008370117B0190E21304F0A374E4F0A3746E
:10079000C2F0801B90E20FE07002A3E0700B122009
:1007A000D290E20FE4F0A304F090E8F07401F0902E
:1007B000E8F0E0600302088490E183E0FBA3E0FA44
:1007C000A3E0F9C003C002C00190E213A3E0FAA3C2
:1007D000E0F9C3D082D083D0E0E99582EA958350D6
:1007E0004490E8ECE0FBA3E0FAA3E0F912017CFFFF
:1007F000603390E213E0FBA3E0FAA3E0F9EF12010B
:10080000C290E214E475F00112025D90E8EDE47527
:10081000F00112025D90E8F2E004F0709B90E8F1C4
:10082000E004F0809390E20FE07002A3E0700B12FE
:1008300020D290E20FE4F0A304F090E183E0FBA368
:10084000E0FAA3E0F9C003C002C00190E213E0FBAC
:10085000A3E0FAA3E0F9D082D083D0E06B7008E97E
:1008600065827003EA6583701B90E20FE07002A35B
:10087000E0700B1220D290E20FE4F0A304F090E8B5
:10088000F07401F090E8F0E0701B90E20FE070026D
:10089000A3E0700B1220D290E20FE4F0A304F090DA
:1008A000E8F07401F090E8F1E0FEA3E0FDAC069002
:1008B000E8EFE0FF1220CCAE04AF0522E490E8C5DB
:1008C000F090E8CCF0FCFD90E8CE1203E4E47B105D
:1008D0007A27F9F890E8CEE0FCA3E0FDA3E0FEA3C0
:1008E000E0FF12033F90E8CDEFF0700690E8C5E01E
:1008F000604890E8CDE02430FF90E8CCE024C6F5D5
:1009000082E434E8F583EFF090E8CCE004F090E87E
:10091000CEE0FCA3E0FDA3E0FEA3E0FFE47B107AC1
:1009200027F9F812033FAC00AD01AE02AF0390E827
:10093000CE1203E490E8C57401F0E47BE87A03F991
:10094000F890E8CEE0FCA3E0FDA3E0FEA3E0FF12F8
:10095000033F90E8CDEFF0700690E8C5E060489066
:10096000E8CDE02430FF90E8CCE024C6F582E43402
:10097000E8F583EFF090E8CCE004F090E8CEE0FCFE
:10098000A3E0FDA3E0FEA3E0FFE47BE87A03F9F82F
:1009900012033FAC00AD01AE02AF0390E8CE1203EC
:1009A000E490E8C57401F0E47B64FAF9F890E8CECD
:1009B000E0FCA3E0FDA3E0FEA3E0FF12033F90E80C
:1009C000CDEFF0700690E8C5E0604790E8CDE024F8
:1009D00030FF90E8CCE024C6F582E434E8F583EFFC
:1009E000F090E8CCE004F090E8CEE0FCA3E0FDA3BA
:1009F000E0FEA3E0FFE47B64FAF9F812033FAC00E9
:100A0000AD01AE02AF0390E8CE1203E490E8C574E6
:100A100001F0E47B0AFAF9F890E8CEE0FCA3E0FDEF
:100A2000A3E0FEA3E0FF12033F90E8CDEFF07006D5
:100A300090E8C5E0604790E8CDE02430FF90E8CC36
:100A4000E024C6F582E434E8F583EFF090E8CCE0EA
:100A500004F090E8CEE0FCA3E0FDA3E0FEA3E0FFFD
:100A6000E47B0AFAF9F812033FAC00AD01AE02AF25
:100A70000390E8CE1203E490E8C57401F090E8CE4C
:100A8000A3A3A3E02430FF90E8CCE024C6F582E4E1
:100A900034E8F583EFF090E8CCE004F0E024C6F50C
:100AA00082E434E8F583E4F07B017AE879C6120643
:100AB000AB2290E8BAEBF0A3EAF0A3E9F090E8BA31
:100AC000E0FBA3E0FAA3E0F912017CFF90E8BDF09F
:100AD00090E456E0FBA3E0FAA3E0F9EF1201C29024
:100AE000E8BAE0FBA3E0FAA3E0F990000212019556
:100AF000FF90E8BEE4F0A3EFF0900001120195FD35
:100B00007C0090E8BFE0FEE42DFFEC3EFE90E8BEE6
:100B1000F0A3EFF090E456E0FBA3E0FAA3E0F99035
:100B20000001EE8FF01202D690E8BAE0FBA3E0FAE3
:100B3000A3E0F9900003120195FF90E456E0FBA3B7
:100B4000E0FAA3E0F9900003EF1201D490E8BAE0D4
:100B5000FBA3E0FAA3E0F9900005120195FF90E8ED
:100B6000BEE4F0A3EFF0900004120195FD90E8BF01
:100B7000E0FEE42DFFEC3EFE90E8BEF0A3EFF09027
:100B8000E456E0FBA3E0FAA3E0F9900004EE8FF056
:100B90001202D690E8BAE0FBA3E0FAA3E0F99000D5
:100BA00007120195FF90E8BEE4F0A3EFF090000675
:100BB000120195FD90E8BFE0FEE42DFFEC3EFE90B3
:100BC000E8BEF0A3EFF090E456E0FBA3E0FAA3E068
:100BD000F9900006EE8FF01202D67F0890E8BDE093
:100BE000FE14FDEFC39D502B90E8BAE0FBA3E0FAA2
:100BF000A3E0F98F82758300120195FD90E456E021
:100C0000FBA3E0FAA3E0F98F82758300ED1201D413
:100C10000F80C9EE24FFFDE434FFFC90E8BAE0FB4E
:100C2000A3E0FAA3E0F98D828C83120195FF90E492
:100C300056E0FBA3E0FAA3E0F990007EEF1201D4A6
:100C400090E8BAE0FBA3E0FAA3E0F98E8275830096
:100C5000120195FF90E456E0FBA3E0FAA3E0F990BF
:100C6000007FEF1201D41222D990E456EBF0A3EAF0
:100C7000F0A3E9F090E8BAE0FBA3E0FAA3E0F922E0
:100C80002D0056616C3A20000A0D004D41433A2078
:100C900042756666657220666C75736865640D0AD8
:100CA000005265636569766564207061636B657485
:100CB0003A200020000D0A004D41433A20435243A0
:100CC000204661696C65640A0D005472616E736D33
:100CD000697373696F6E20646F6E650D0A005472DC
:100CE000616E736D697373696F6E206661696C659F
:100CF000643A20004C6564206F66660A0D004C65FE
:100D000064206F6E0A0D005472616E736D697474A5
:100D1000696E67207061636B65743A20005261648C
:100D2000696F207475726E6564206F66660D0A00C7
:100D3000526164696F207475726E6564206F6E0D08
:100D40000A00526164696F206973206F66660D0A3C
:100D5000005265636569766572207475726E6564AC
:100D6000206F66660D0A00526563656976657220BC
:100D70007475726E6564206F6E0D0A004368616E53
:100D80006E656C203A200057726974696E67207333
:100D900065676D656E740A0D0045726173696E67F3
:100DA000207365676D656E740A0D00526561646934
:100DB0006E67206164630A0D004C656E677468207D
:100DC0006E6F773A200050726F6772616D20696EA6
:100DD000697469616C697A65640A0D004D41433A32
:100DE00020427566666572206F76657272756E0D4B
:100DF0000A004D41433A20556E7363686564756C13
:100E00006564207472616E736D69740A0090E34CBE
:100E1000E0702BE5D9F0E0FFC3947F501190E330F0
:100E2000E0FBA3E0FAA3E0F9EF1201C28010122266
:100E3000711220BFE490E34CF090E189F02290DF42
:100E400053E0FF90E34CE0D39F403A12215890E8E2
:100E5000B9EFF090E8B1E0700990E189E0D3940A2D
:100E60004012122271E490E212F090E34CF090E113
:100E700089F0800912227790E189E004F090E8B9C6
:100E8000E0FF0220CCE490E189F0FF90E34CE0FE2B
:100E9000EFC39E504490DF53E0FD94004022ED9458
:100EA00081501DEF2401FDE433FC90E330E0FBA30F
:100EB000E0FAA3E0F98D828C83E5D91201D4801683
:100EC00090E330E0FBA3E0FAA3E0F98E82758300A3
:100ED000E41201D480030F80B290E330E0FBA3E082
:100EE000FAA3E0F990E34CE0F582758300120195D6
:100EF000FFE490E34CF0EF30E7101222DD90E33096
:100F0000EBF0A3EAF0A3E9F0800F7BFF7A0C79B84D
:100F10001222CD1220BF12227112215890E8B9EF8F
:100F2000F090DF53E0FFD39400400AEF9481500526
:100F3000122277800EE490E212F090E8B1E06003B4
:100F400012227190E8B9E0FF1220CC53E9DF22E4CD
:100F500090E8C2F090E8C7F0FCFDFE90E8C91203EB
:100F6000E4E47B64FAF9F890E8C9E0FCA3E0FDA3AF
:100F7000E0FEA3E0FF12033F90E8C8EFF070069098
:100F8000E8C2E0604790E8C8E02430FF90E8C7E09E
:100F900024C3F582E434E8F583EFF090E8C7E00479
:100FA000F090E8C9E0FCA3E0FDA3E0FEA3E0FFE4CD
:100FB0007B64FAF9F812033FAC00AD01AE02AF0357
:100FC00090E8C91203E490E8C27401F0E47B0AFAE5
:100FD000F9F890E8C9E0FCA3E0FDA3E0FEA3E0FF80
:100FE00012033F90E8C8EFF0700690E8C2E0604757
:100FF00090E8C8E02430FF90E8C7E024C3F582E41D
:1010000034E8F583EFF090E8C7E004F090E8C9E039
:10101000FCA3E0FDA3E0FEA3E0FFE47B0AFAF9F8FD
:1010200012033FAC00AD01AE02AF0390E8C912035A
:10103000E490E8C27401F090E8C9A3A3A3E02430CF
:10104000FF90E8C7E024C3F582E434E8F583EFF0CD
:1010500090E8C7E004F0E024C3F582E434E8F583C7
:10106000E4F07B017AE879C31206AB2290E8C0EB8A
:10107000F0A3EAF0A3E9F07BFF7A0C79A112220B2E
:1010800090E8C0E0FBA3E0FAA3E0F912017CFF12B4
:10109000221412220590E8C0E0FBA3E0FAA3E0903E
:1010A00000011221EF12220590E8C0E0FBA3E0FA54
:1010B000A3E090000312220F12220590E8C0E0FB8B
:1010C000A3E0FAA3E09000041221EF12220590E8B9
:1010D000C0E0FBA3E0FAA3E0F99000061221F012B1
:1010E0002205E490E8C3F090E8C0E0FBA3E0FAA397
:1010F000E0F912017C24F7FF90E8C3E0FEC39F50A3
:1011000021E92408F9E43AFAEE7E0029F9EE3AFAE8
:1011100012017CFF12221412220590E8C3E004F0B1
:1011200080C590E8C0E0FBA3E0FAA3E090007E1247
:10113000220F12220590E8C0E0FBA3E0FAA3E0F939
:1011400090007F1222107BFF7A0C79B512220B904F
:10115000E8C0E0FBA3E0FAA3E0F92290E8C2122184
:1011600050A3EFF090E8C2E0F9A3E0FAA3E090E327
:1011700033C9F0A3EAF0A3E9F01220CC90E8C2E072
:10118000FBA3E0FAA3E0F912017CFD90E102F090EC
:10119000000112029EAAF054F890E103F0EAA3F0D5
:1011A00090E8C2A3E0FA90000312019590E105F0E7
:1011B00090000412029EAAF090E106F0EAA3F090DB
:1011C000E186E0FBA3E0FAA3E0F9120273AAF09033
:1011D000E108F0EAA3F07F08ED14FEEFC39E502370
:1011E00090E8C2E0FBA3E0FAA3E0F98F82758300E8
:1011F000120195FE74022FF582E434E1F583EEF0DE
:101200000F80D574012DF582E434E1F583E4F074A8
:10121000022DF582E434E1F583E4F07B017AE17993
:10122000021223352290E182E090E8B9F0700312B7
:1012300020F87F807E0012001690DF62E020E01828
:1012400090E182E070031221CB90E8AEE0FBA3E0D6
:10125000FAA3E0F97D02807A75E1E790E8AEE0FB61
:10126000A3E0FAA3E0F912017CF5D9E4FF90E8AE1F
:10127000E0FBA3E0FAA3E0F912017CFEEFC39E506D
:101280000FEFF582758300A3120195F5D90F80DD6C
:10129000E4FFAE070FEEC39403502075E1E3E4FED4
:1012A00090DF62E090E8BAF020E409AD060EEDC3ED
:1012B00094C840EC90E8BAE030E4D790E8BAE02077
:1012C000E41375E1E790E8AEE0FBA3E0FAA3E0F9F0
:1012D0007D0302237C12215890E8BBEFF090E8AA2E
:1012E0007401F01220CC2242E453000141E21900C3
:1012F00041E4550041E2AA0141E32F0041E34B00E4
:1013000041E1820041E8AA0041E2120041E8B10057
:1013100041E34C0041E189004BE34075AE0100E53B
:10132000AE548070FA226069E4597B0110AF027BF1
:1013300000C083C082C085C084C092EAF583E9F50D
:1013400082759200E5AE548070FA75AE02EC6017BB
:101350007A407904E0A3F5AFD9FA75AF00E5AE5451
:101360004070FADAEDDCE9ED6019ED54FC0303FDA1
:101370007904E0A3F5AFD9FA75AF00E5AE5440703B
:10138000FADDEDD092D084D085D082D083EB60029C
:10139000D2AF2241E000010012215890E8DFEFF0C7
:1013A00090E184E475F00112025D90E218E004F02F
:1013B000700690E217E004F090E2A5E0FBA3E0FAEB
:1013C000A3E0F9C003C002C00190E183E0FBA3E009
:1013D000FAA3E0F9D082D083D0E06B7008E965828F
:1013E0007003EA6583700D90E18304F0A374E4F068
:1013F000A374C2F090E213E0FBA3E0FAA3E0F9C00B
:1014000003C002C00190E183E0FBA3E0FAA3E0F98E
:10141000D082D083D0E06B7008E965827003EA6502
:1014200083600D1220D290E20FE4F0A304F0800755
:10143000E490E20FF0A3F090E8DFE0FF1220CC226E
:1014400090E8CAEBF0A3EAF0A3E9F0A3E0FBA3E085
:10145000FAA3E0FFAE02AD037C00E4FB7A08F9F8E2
:1014600012033F90E8D2EFF090E8CDE0FBA3E0FA62
:10147000A3E0F9FF7C00EA5407FEE4FD78081203BC
:10148000D190E8D3EFF0AF017C00E4FEFD780212CA
:1014900003D190E8D2E025E0FEA3E0FD1313543F12
:1014A0004EF5ADEDC4333354C04FF5AC75AB24A34A
:1014B000E5C7F043C74090E8CAE0FBA3E0FAA3E029
:1014C000F9C00290E8D0E0FCA3E0FD90E18AA3E03F
:1014D000FAA3E0F5828A83D00212041A90E8D4E0DD
:1014E000F5C77F0022C0E0C0F0C083C082C0D075C5
:1014F000D000C000C001C002C003C004C005C006C7
:10150000C00712215890E8E8EFF0E5E95591A3F003
:1015100053E9FE53E9FD53E9FB53E9F753E9EF5370
:10152000E9DF53E9BF53E97FE030E3031223E8909A
:10153000E8E9E030E5031223EB90E8E9E030E60368
:101540001223EE90E8E9E030E41490E8EBE5E2F0F5
:1015500090E8EAE5E3F0E0FEA3E0FF1223F1539BFD
:10156000FC90E8E8E0FF1220CCD007D006D005D0F0
:1015700004D003D002D001D000D0D0D082D083D00C
:10158000F0D0E03290E453E0FFA3E090E33ECFF0F0
:10159000A3EFF090E34D7401F0A374E2F0A3741A8A
:1015A000F090E34DE0FBA3E0FAA3E0F9747F1201B1
:1015B000C290E34DE0FBA3E0FAA3E0F9900001E460
:1015C000F5F01202D690E2AAE0FF04F0900003EFDB
:1015D0001201D490000474FFF5F01202D6900006B8
:1015E000E4F5F01202D690007EE41201D490007F60
:1015F000E41201D4E4FFFEAD0774532DF582E43408
:10160000E3F583EDF00FBF00010EE4B507E9EEB49A
:1016100001E57F0022787FE4F6D8FD758107021688
:101620005C021C8CE493A3F8E493A34003F68001CE
:10163000F208DFF48029E493A3F85407240CC8C30C
:1016400033C4540F4420C8834004F456800146F646
:10165000DFE4800B01020408102040809012E7E4D0
:101660007E019360BCA3FF543F30E509541FFEE4A4
:1016700093A360010ECF54C025E060A840B8E49366
:10168000A3FAE493A3F8E493A3C8C582C8CAC583A8
:10169000CAF0A3C8C582C8CAC583CADFE9DEE7802D
:1016A000BE90E3367410F0A3743DF0A37423F0E40D
:1016B000A3F0A3F0A3F090E453E0FCA3E0FDEC90D2
:1016C000E33CF0A3EDF012211D1221D77B017AE358
:1016D000793612195390E33CE0FEA3E0FDEDFF9054
:1016E000E351EEF0A3EFF090E351E0FEA3E0FF1230
:1016F000222190E351E0FEA3E0FF90E8B2EEF0A3D8
:10170000EFF0122218121F357F14121ED77F01121C
:101710001D8212224E1222E50222E190E211E070B7
:1017200005D2A943B43074162FF582E434E2F58370
:10173000E0702C74162FF582E434E2F5837401F026
:1017400090E211E004F0742D2FF582E434E3F58388
:10175000E0FE7401A806088002C333D8FC42F2748C
:101760002E2FF582E434E3F583EDF074502FF582EB
:10177000E434E3F583EBF090E8B9E0FE742D2FF547
:1017800082E434E3F583EEF02290E8C9EBF0A3EABB
:10179000F0A3E9F0A3EDF0E490E8D0F0A3F090E836
:1017A000CCE0FF90E8D0E0FCA3E0FDC39F7480F89C
:1017B000EC648098503FED4C600E90E8CDE0FBA3C8
:1017C000E0FAA3E0F91206AB90E8C9E0FBA3E0FA67
:1017D000A3E0F990E8D0E0FEA3E0F5828E83120149
:1017E00095FF12003E90E8D1E004F070B190E8D08F
:1017F000E004F080A92290E8B8EFF0B40B00504963
:10180000901807F828287302182802182B02182E9F
:1018100002183102183402183702183A02183D0231
:10182000184002184302184602205B0204480221B5
:101830009F021E750216A1021225021E97020E0DAE
:10184000021C59022160021A3C90E8B8E0FF122203
:10185000B32290E8C0EEF0A3EFF0E4A3F0C3EE648F
:1018600080948050237BFF7A0C79801206AB90E83D
:10187000C2EFF090E8C0E0FEA3E0FF7CFF7DFF1226
:1018800001F690E8C3EE800B90E8C0E0FFA3E09083
:10189000E8C3CFF0A3EFF090E8C3E0FEA3E0FF12AF
:1018A00008BC90E8C2E02FF0E0FF7E0022C0E0C05C
:1018B000F0C083C082C0D075D000C000C001C0029B
:1018C000C003C004C005C007E4FDFC12215890E825
:1018D000DEEFF0E58620E003C2E90D90E8DEE0FFF0
:1018E0001220CCED4C60031223E2D007D005D004C7
:1018F000D003D002D001D000D0D0D082D083D0F09D
:10190000D0E032C0E0C0F0C083C082C0D075D0004B
:10191000C000C001C002C003C004C005C006C007AB
:10192000AFBBEF90E32BF0A3E4F0AFBA90E32BE072
:10193000F0A3E04FF01222ADD007D006D005D004BE
:10194000D003D002D001D000D0D0D082D083D0F04C
:10195000D0E03290000712019590DF4AF090000627
:1019600012019590DF49F090000512019590DF4833
:10197000F090000412019590DF47F09000031201EF
:101980009590DF46F090000212019590DF45F090AF
:10199000000112019590DF44F012017C90DF43F0CA
:1019A000221223BE1223B87BFF7A0D79C612220BB6
:1019B00090E2A9740BF0FF1222FD7F641223417B99
:1019C000FF7A0D797C12220B90E2A9E0FF1222ED42
:1019D0007BFF7A0C798812220B90E2197401F09047
:1019E000E455F01223217B017D307F80022097C0D7
:1019F000E0C0F0C083C082C0D075D000C000C0017C
:101A0000C002C003C004C005C006C0071221589020
:101A1000E8E0EFF0C2891223E590E8E0E0FF122051
:101A2000CCD007D006D005D004D003D002D001D04E
:101A300000D0D0D082D083D0F0D0E03290E000E06F
:101A4000FD7401F074502DF582E434E3F583E01366
:101A50001313541FFFC374089FFF90E32BE0FEA3F2
:101A6000E0A807088006CEA2E713CE13D8F8FF90AF
:101A7000E32BEEF0FAA3EFF0FBAF05E4FD021CBF91
:101A800090E000E0C3940150037F012290E000EF5A
:101A9000F090E8C2E5BBF0E5BAF074502FF582E4AF
:101AA00034E3F583E0FE742E2FF582E434E3F5830E
:101AB000E04EFE742D2FF582E434E3F583E04EF51D
:101AC000B67F0022C0E0C0F0C083C082C0D075D015
:101AD00000C000C001C002C003C004C005C006C0F1
:101AE00007C28BAFC11223DFD007D006D005D004C8
:101AF000D003D002D001D000D0D0D082D083D0F09B
:101B0000D0E03290E8BDEFF0A3ECF0A3EDF090E36D
:101B10004BE0600B12226590E34BE004F08005E49B
:101B200090E34BF07BFF7A0C798212220B90E8BE97
:101B3000E0FEA3E0FF1222C97BFF7A0C7988022223
:101B40000B12213F90E8B6EFF0121EF7122170EF52
:101B5000F0122083122170EFF012206F122170EF2B
:101B6000F0121E2AAD07E0FF122177EFF0121B7E64
:101B7000122170EFF0121584122170EFF02290E123
:101B8000837401F0A374E4F0A374C2F0F990E2133B
:101B90007401F0A374E4F0A3E9F090E2A57401F0FD
:101BA000A374E8F0A374AAF0E490E20FF0A3F0901D
:101BB000E217F0A3F0FF2290E8B4E0F4602FE09089
:101BC000E8B8F0249AF582E434E2F583E0FF90E887
:101BD000B4F0BFFF0690E20D74FFF090E8B8E0FFAC
:101BE000249AF582E434E2F58374FFF0227FFF2229
:101BF00090E8CAEBF0A3EAF0A3E9F090E8D0E0FEA9
:101C0000A3E0FF90E8CDA3E0FAA3E0F97B01C002D6
:101C100090E8CAA3E0FAA3E0F8AC027D01D002127A
:101C200001567F0022AF01AE02AD037C00E4FB7AD7
:101C300008F9F812033FEF25E0F5AD90E8C2E5C7DB
:101C4000F043C74090E8ABA3E0FAA3E0F912041612
:101C500090E8C2E0F5C77F002290E182E0600E12BA
:101C600021CB75E1E675E1E61220F8800675E1E624
:101C700075E1E612215890E8B9EFF0E490E8B1F090
:101C80001220CC7BFF7A0C798B0222CD1221589046
:101C9000E8B5EFF01223491222C11222C5EF70FA03
:101CA000121B411222C5EF70FA90E8B5E0FF122036
:101CB000CC1223C71223C11223CD7EFF7FFF2290B7
:101CC000E8BAEDF0A3EAF0A3EBF090E8B9EFF0701A
:101CD0000E90E8BAE0FFA3E0FCA3E0FD021B039036
:101CE000E8B9E0FFA3E0FDA3E0FAA3E0FB12219036
:101CF0002290E8BAEBF0A3EAF0A3E9F0A3EDF07BC1
:101D0000FF70067A0C79CA80157A0C79DE12220BE4
:101D100090E8BDE0FF1222147BFF7A0C79B5122205
:101D20000B22C002C00190E8C5E0F9A3E0FAA3E0ED
:101D300090E8CDC9F0A3EAF0A3E9F090E8C8E0FF8D
:101D4000A3E090E8D0CFF0A3EFF0D001D0021214BE
:101D50004022C002C00190E8C5E0F9A3E0FAA3E088
:101D600090E8CDC9F0A3EAF0A3E9F090E8C8E0FF5D
:101D7000A3E090E8D0CFF0A3EFF0D001D002121B87
:101D8000F022EF75F01FA4FFAEF07C007D6412021C
:101D900008EF541FFF90DF0AE0FCA3E054E0FDECE5
:101DA000FEED4FFF90DF0AEEF0A3EFF022AE071238
:101DB0001F52EF701F90E8B4E0B4FF02800D90E274
:101DC0000DE0249AF582E434E2F583EEF090E20D22
:101DD000F07F01227F002212215890E8B7EFF01225
:101DE0001BB790E8B6EFF0BFFF051223CA80F09052
:101DF000E8B7E0FF1220CC90E8B6E0FF1217F680BB
:101E0000D6AE0712215890E8F3EFF0AF06121DADE1
:101E1000EF60047F0080027F0590E8F4EFF090E827
:101E2000F3E0FF1220CCA3E0FF2253F1FE43F30CBA
:101E3000E5C65440C413135403240AF5C575C2D82B
:101E40004386C043C482C2E9C28BD2AA439A047FAC
:101E5000002290E8C4EEF0A3EFF0EEFF12003EC0C7
:101E600006C00790E8C4A3E0FF12003ED0E02FFFB9
:101E7000D0E03EFE2212215890E8B9EFF090E20E39
:101E8000E0FE1220CC90E333E0FBA3E0FAA3E0F9FC
:101E9000AF06AD0702237F121F8890E182E0600E3B
:101EA0001221CB90E2A8E0FF121ED70220F890E2A8
:101EB000A8E0FF121ED722C002C00190E8C6E0F9D8
:101EC000A3E0FAA3E090E8CDC9F0A3EAF0A3E9F01B
:101ED000D001D002021789EF24F5FFE434FFFE7C25
:101EE000007D051201F674652FFF74013E44409099
:101EF000DF10F0A3EFF02290E8AB7401F0A374E3DD
:101F0000F0A37440F090E18A7401F0A374E4F0A3AC
:101F10007459F07F00227BFF7A0D79DC1222CD907C
:101F2000E212E0700990E8B1E0700312227190E8CB
:101F3000B17401F02290DF02E054F7F0A3E04420F6
:101F4000F090DF4F747FF090DF0A7405F0A3740FF8
:101F5000F022749A2FF582E434E2F583E0B4FF07AF
:101F600090E20DE0B507047F0180027F00227E0031
:101F70007F0B7DFF7B017AE2799A12041C90E8B412
:101F800074FFF090E20DF022E4FA90DF62E030E4BA
:101F900010EAC39432500A7F647E001200160A8051
:101FA000E922EFC3940B4006EFD3941A40037F015C
:101FB0002290E2A8EFF01222897F0022122158908D
:101FC000E8C2EFF043912053E9DF439A01E0FF12AA
:101FD00020CC7F002212215890E8B9EFF0439140C5
:101FE00053E9BF439A01E0FF1220CC7F002290E228
:101FF00012E0701290DF53E0D39400400990E21297
:102000007401F01222772253BEFC53BEFBE5BE30B2
:10201000E6FB7408FFF5C61222BD7F002212237969
:1020200012237012236D1223641223581223557F3A
:10203000002290E8AAE06005E4F00222A77BFF7A84
:102040000D79F21222CD2290E8BC122150A3EFF0BC
:1020500090E20EEDF01220CC02226B12232190E3CD
:102060004DE0FBA3E0FAA3E0F912233102232D1285
:10207000228F90E4567401F0A374E2F0A374ABF0E5
:102080007F002290E3307401F0A374E1F0A3748D1B
:10209000F01222957F0022AE03AC05AD07AF04AB72
:1020A0000790E8B9EEF0E4FF02171B121BB7EFB47C
:1020B000FF07E490E8B6F0FF221217F67F01221224
:1020C000215890E8B9EFF0E490E212F0EF24FF928B
:1020D000AF2290E183E0FBA3E0FAA3E0F912017CD8
:1020E000FF1200062212215890E8C2EFF05391DF50
:1020F000E0FF1220CC7F002275E1E675E1E61222B6
:10210000D575E1E290E1827401F02212215890E845
:10211000B9EFF0C289D2A81220CC7F002290DF173D
:10212000E054F7F0E04408F0E5E920E7FB2290E80E
:10213000AEEBF0A3EAF0A3E9F01222837F00227F46
:102140000190E216E4F0A3DFFCE490E211F0FF223C
:10215000EBF0A3EAF0A3E9F0A2AFE433FFC2AF22B1
:1021600090E8AEE0FBA3E0FAA3E0F9E4FD02237CF3
:10217000AD0790E8B6E0FFEFB5050280027F0122CF
:1021800012215890E8DCEFF01223D3E0FF0220CCBC
:1021900090E8BDEFF0A3EDF0A3EAF0A3EBF022127C
:1021A00022E990E186EBF0A3EAF0A3E9F022EFD375
:1021B000946440037F0122121D827F002290DF176A
:1021C0007404F090DF17E020E4F92275E1E51222B3
:1021D000D1E490E182F02253BEFB53C6FEE5BE304F
:1021E000E6FB2290E182E060031221CB7F0022F91E
:1021F00012029EFFAEF0121E522290E001EFF0128A
:1022000023DC02229B7BFF7A0C79B31206AB22F906
:10221000120195FF12003E2290DF4BEEF0A3EFF08B
:102220002290DF4DEEF0A3EFF0221221BD1220F834
:102230007F0022121F8812224E7F00221223C753D2
:10224000BEFC0223C490E8ECEEF0A3EFF02290DF96
:1022500017E04408F022AE071222A10221FA7B0106
:102260007AE3795122E4FF121A80227F03121E01C1
:10227000227F08121E01227F07121E01221220F85F
:102280007F00227F05121E01227F06121E01227F7F
:1022900002121E01227F04121E01227F01121E0162
:1022A0002290E8DCEFF0227F09121E01227F0A1241
:1022B0001E012290E8B9EFF02243FF012212201DF7
:1022C00022122007221220AB22121852221206AB31
:1022D000221220E522121FBC2212106C22120AB216
:1022E0002212210B22121FD52212225E22120F4F20
:1022F00022121C2522121FA2221222F5221222F9DA
:102300002212227D2212230122122305221221E30E
:102310002212230D221223112212222A2212231901
:102320002212231D221222332212232522122329B4
:102330002212115B2212212E221221AE22122339E7
:102340002212233D2212225622021F6EC293220223
:10235000234C02234F022352020012C2A022022366
:102360005B02235E02236102000E02236702236ADE
:1023700002003A0222B902237302237602204702A6
:102380001CF1D29322022382022385022388022396
:102390008B02238E0223F4022394022397D2A022DD
:1023A00002239D0223A00223A30223A60223A90243
:1023B00023550223AF0223580223B50223640223CC
:1023C000BB0219A1C2AF22D2AF2202223C021DD70A
:1023D000B2A0220223D00221800223D60223D902F6
:1023E0002345021398021F160223F5021FEE022056
:0623F00032022245222208
:00000001FF
