:100000000201E990E009E0F4602FE090E003F024C1
:1000100007F582E434E0F583E0FF90E009F0BFFFEC
:100020000690E00674FFF090E003E0FF2407F582FD
:10003000E434E0F58374FFF0227FFF221202139074
:10004000E000EFF012024B12023F120243EF70FA8F
:10005000120247120243EF70FA90E000E0FF120232
:100060001B1202DB1202AE1202E17EFF7FFF22EFC3
:100070004E6012EF60010EEDBB010B89828A83F0A6
:10008000A3DFFCDEFA2289F05007F709DFFCA9F0B4
:1000900022BBFEFCF309DFFCA9F022AE0712013AF5
:1000A000EF701F90E009E0B4FF02800D90E006E0E1
:1000B0002407F582E434E0F583EEF090E006F07F6B
:1000C00001227F002212021390E002EFF0120003DF
:1000D00090E001EFF0BFFF051202DE80F090E00239
:1000E000E0FF12021B90E001E0FF12017080D6AE2B
:1000F0000712021390E004EFF0AF0612009BEF60CE
:10010000047F0080027F0590E005EFF090E004E0BE
:10011000FF12021BA3E0FF22E4FFFEE4FDFC0DBD85
:1001200000010CED64A04C70F50FBF00010EBE0184
:10013000EABFFFE712022102022774072FF582E4CB
:1001400034E0F583E0B4FF0790E006E0B507047FF4
:100150000180027F00227E007F027DFF7B017AE02A
:10016000790712006F90E00974FFF090E006F0222A
:1001700090E003EFF0146006047006020201020131
:100180001890E003E0FF12022D2253BEFC53BEFB89
:10019000E5BE30E6FB7408FFF5C612023B7F002285
:1001A00012027B12027212026F12026612025A12BD
:1001B00002577F0022120003EFB4FF07E490E00132
:1001C000F0FF221201707F012212021390E004EF6F
:1001D000F01202B4E0FF02021B12021390E004EFDF
:1001E000F01202CCE0FF02021B787FE4F6D8FD7526
:1001F000810702003C1202AB120299120290020225
:10020000271202D51202C60202BD1202DB53BEFC47
:100210000202D8A2AFE433FFC2AF22EF24FF92AFB5
:1002200022E4FF1200EF227F011200EF2290E0048F
:10023000EFF02243FE082243FE01221201A0221207
:10024000018A221201B52212027E22020156C293B5
:100250002202024E0202510202540202E4C2902221
:1002600002025D02026002026302023302026902BC
:10027000026C0202E50202370202750202787F0078
:1002800022D2932202028102028402028702028A9F
:1002900002028D0202E6020293020296D29022022C
:1002A000029C02029F0202A20202A50202A802010F
:1002B000F5B293220202B10201C90202B70202BAE8
:1002C0000202E70202C00202C3B290220202C90285
:1002D00001D90202CF0202D2C2AF22D2AF22020261
:0802E0000A0200C522222222BD
:00000001FF
