:1000000002003E1202FE90E004EFF012039DE0FFBA
:1000100002030E020016C0E0C083C082C0D075D0BB
:1000200000C006C007C28BAFC11203C1D007D00603
:10003000D0D0D082D083D0E03222220200CA787F92
:10004000E4F6D8FD758107020085020145E493A31B
:10005000F8E493A34003F68001F208DFF48029E47A
:1000600093A3F85407240CC8C333C4540F4420C8C6
:10007000834004F456800146F6DFE4800B0102045D
:100080000810204080900325E47E019360BCA3FF0C
:10009000543F30E509541FFEE493A360010ECF5492
:1000A000C025E060A840B8E493A3FAE493A3F8E481
:1000B00093A3C8C582C8CAC583CAF0A3C8C582C8ED
:1000C000CAC583CADFE9DEE780BEC0E0C083C08264
:1000D000C0D075D000C004C005C007E4FDFC12020A
:1000E000FE90E006EFF0E58620E003C2E90D90E027
:1000F00006E0FF12030EED4C60031203C4D007D0DC
:1001000005D004D0D0D082D083D0E03290E00AE095
:10011000F4602FE090E003F02408F582E434E0F589
:1001200083E0FF90E00AF0BFFF0690E00774FFF065
:1001300090E003E0FF2408F582E434E0F58374FFE7
:10014000F0227FFF221202FE90E000EFF012034641
:1001500012033612033AEF70FA12033E12033AEF1B
:1001600070FA90E000E0FF12030E12039112038B6D
:100170001203977EFF7FFF22EF4E6012EF60010EA9
:10018000EDBB010B89828A83F0A3DFFCDEFA2289B2
:10019000F05007F709DFFCA9F022BBFEFCF309DFF2
:1001A000FCA9F0221202FE90E002EFF012010C9086
:1001B000E001EFF0BFFF0512039480F090E002E051
:1001C000FF12030E90E001E0FF1202EB80D6AE07B3
:1001D000120249EF701F90E00AE0B4FF02800D9018
:1001E000E007E02408F582E434E0F583EEF090E0E7
:1001F00007F07F01227F0022AE071202FE90E0048A
:10020000EFF0AF061201CEEF60047F0080027F05A1
:1002100090E005EFF090E004E0FF12030EA3E0FF92
:100220002253F1FE43F30CE5C65440C413135403A8
:10023000240AF5C575C2D84386C043C482C2E9C248
:100240008BD2AA439A047F002274082FF582E434EB
:10025000E0F583E0B4FF0790E007E0B507047F0115
:1002600080027F00227E007F017DFF7B017AE079A2
:100270000812017890E00A74FFF090E007F0225332
:10028000BEFC53BEFBE5BE30E6FB7408FFF5C612AC
:1002900003327F002212037612036D12036A1203E7
:1002A000611203551203527F002212010CEFB4FFBA
:1002B00007E490E001F0FF221202EB7F012290E0C0
:1002C00009EFF01203BE1203AF1203A612031A22A3
:1002D0001202FE90E004EFF01203B5E0FF02030EFD
:1002E00012038890E009E0FF020342EF700302036B
:1002F000061203142212039153BEFC02038EA2AF16
:10030000E433FFC2AF2290E009E0FF020342EF2492
:10031000FF92AF2290E003EFF022E4FF1201F822F7
:100320008FC17F002241E009410043FE082243FFC4
:1003300001221202952212027F221202AA22120226
:10034000212212032022020265C2932202034902E3
:10035000034C02034F020039C2A0220203580203D9
:100360005B02035E02032A02036402036702003A8F
:1003700002032E020370020373D2A0220203790249
:10038000037C02037F0203820203850202E0C2AF04
:1003900022D2AF220202F50201A4B2932202039AF2
:1003A0000200030203A00203A30203C70203A9027F
:1003B00003ACB2A0220203B20202D00203B80203CD
:0903C000BB0202BE0203C82222A6
:00000001FF
